:020000040800F2
:10000000A807002005010008290100082B010008AD
:100010002D0100082F010008310100080000000038
:100020000000000000000000000000003301000894
:10003000350100080000000037010008F90600083B
:100040003B0100083B0100083B0100083B010008A0
:100050003B0100083B0100083B0100083B01000890
:100060003B0100083B0100083B0100083B01000880
:100070003B0100083B0100083B0100083B01000870
:100080003B0100083B0100083B0100083B01000860
:100090003B0100083B0100083B0100083B01000850
:1000A0003B010008110800083B0100080507000893
:1000B0002908000839090008650A00083B01000802
:1000C0003B0100083B0100083B0100083B01000820
:1000D0003B0100083B0100083B0100083B01000810
:1000E0003B0100083B0100083B010008DFF810D08D
:1000F00000F0FCF900480047B10B0008AFF30080A6
:10010000A80700200D488047DFF83400016841F45B
:10011000E0210160BFF34F8FDFF82800DFF82810DF
:1001200001600A4800477047FEE7FEE7FEE7FEE78A
:10013000FEE7FEE7FEE7FEE7FEE7FEE72701000831
:1001400024ED00E00CED00E00003FA05ED000008EE
:10015000F0B480EA0102D40F4200B2EB410F02D2A8
:100160000246084611464A0042D0C30DDDB2C1F333
:10017000C752AD1A202D35DAC1F3160141F4000241
:1001800004B15242C5F1200602FA06F12A41104498
:10019000B3EBD05F23D0C4B1012DA0EBC35009DC79
:1001A000F0BC4FF0004202EAC352DBB200F500009F
:1001B00000F011B9400000F1807000EBC350A0F1D5
:1001C000807040EAD170490009E0490841EAC071F5
:1001D000A0EBC35000F50000400800EBC350F0BC9A
:1001E00000F0F0B86142012202EB4101001BF6E78A
:1001F000F0BC704781F00041AAE780F00040A7E71B
:1002000080EA010210B502F00043400022D04A000B
:100210001FD0010E01EB1261C0F35600C2F356026B
:1002200040F4000042F40002A0FB022000047F39E9
:10023000140400D0401C50EA124001D44000491E72
:10024000C2B20C0604EBD010401C4008802A02D039
:1002500003E0002010BD20F00100002900DA00209A
:10026000184310BD2DE9FE4F81EA030404F0004459
:1002700021F0004100944FF0000B23F0004350EABE
:1002800001045ED052EA03045BD0C3F30A54C1F305
:100290000A552C44A4F2F3340194A0FB0254C1F398
:1002A000130141F48011C3F3130343F4801301FBE2
:1002B000024400FB034E840A970A44EA815447EA49
:1002C0008357A4FB076802958D0A05FB07854FEA53
:1002D000932C04FB0C542705029D4FEA065847EA6D
:1002E0001637B5EB08056EEB070C870E920E47EA42
:1002F000811742EA8312A7FB0201B6EB0B0164EB04
:1003000000042B0D43EA0C335E1844EB1C50DA4614
:100310005146E7FB0201C5F313044FEA0B3343EAEE
:1003200014534FEA0432019C43EA0603A4F10C047F
:100330000294009CCDE900B400F08AF803B0BDE857
:10034000F08F00200146F9E700F0004230F0004055
:100350000AD0C10D01F56071C0F3160042EA0151E7
:10036000C20840071143704700200146704701F062
:10037000004330B421F0004150EA010206D00A0DDA
:10038000A2F56072C1F31301002A02DC30BC002028
:100390007047440F44EAC104C100E01830BC00EBD0
:1003A000C25000F00FB8202A04DB203A00FA02F114
:1003B000002070479140C2F1200320FA03F3194353
:1003C000904070470029A8BF7047401C490008BFF3
:1003D00020F00100704710B4B0FA80FC00FA0CF075
:1003E00050EA010404BF10BC704749B1CCF12004AD
:1003F00021FA04F411FA0CF118BF0121214308433A
:10040000A3EB0C01CB1D4FEA00614FEA102042BF65
:10041000002010BC704700EBC35010440029A4BF5B
:1004200010BC7047401C490008BF20F0010010BC00
:10043000704710B5141E73F1000408DA401C41F136
:10044000000192185B411A4301D120F0010010BD58
:100450002DE9F04D92469B4611B1B1FA81F202E0CE
:10046000B0FA80F220329046FFF79DFF04460F4617
:1004700040EA0A0041EA0B0153465A46084313D0AA
:10048000114653EA010019D0C8F14002504600F06D
:100490003FF805460E46504659464246FFF783FF51
:1004A000084305D0012004E020463946BDE8F08D20
:1004B0000020054346EAE0762C4337430A9863055B
:1004C000E40AA0EB08000022FD0A44EA47540A307F
:1004D00002D500200146E9E7010510196941DDE96F
:1004E000084500196941BDE8F04DA2E7064C074DEB
:1004F00006E0E06840F0010394E8070098471034F4
:10050000AC42F6D3FFF7F6FD140C0008340C0008DB
:10051000202A04DB203A21FA02F00021704721FA58
:1005200002F3D040C2F120029140084319467047BF
:1005300070B58D1810F8014B14F0030201D110F8BA
:10054000012B231106D110F8013B03E010F8016BD9
:1005500001F8016B521EF9D1ABB110F8012B04F078
:100560000C048A1A0C2C03D0A2EB84129B1C08E00A
:1005700010F8014BA2EB0422F8E712F8014B01F846
:10058000014B5B1EF9D5A942D4D3002070BD0000F9
:1005900070B5194C8320206000256560A560174860
:1005A0006060012000F02EF8616808436060144923
:1005B0000D60086840F002000860206840F4803058
:1005C000206020688003FCD5206840F080702060A7
:1005D00020688001FCD5606820F0030060606068DE
:1005E00040F002006060606840F48000606008686D
:1005F00040F01000086070BD0010024000841D0033
:1006000000200240012804D0B0F5807F03DD0121E5
:1006100002E000202CE00021802801DD012200E022
:1006200000220A44402801DD012100E000210A44A3
:10063000102801DD012100E000210A44082801DD25
:10064000012100E000210A44042801DD012100E02D
:1006500000210A44022801DD012100E000211144AB
:10066000012801DD012000E000200844C01D000138
:10067000702800D1002070472DE9F05F05460F4635
:100680004FF00008C1464FF0400A002420E007FB6D
:1006900004F0C11700EB91618911A0EB8116144A97
:1006A00052F8261055F82400FFF7AAFD834641466C
:1006B000FFF74EFD80460F4A52F8261055F82400E9
:1006C000FFF79EFD83464946FFF742FD8146641CC5
:1006D0005445DCDB484600F095FA0446404600F0FD
:1006E00091FA83462146FFF733FDBDE8F09F0000F5
:1006F00000000020000100200148006800470000C1
:10070000A003002070B53B4908883B4C82073B4D55
:10071000A4F12006A4F1800018D50A8822F0020274
:100720000A800178012901D1006A80472888810761
:10073000334802D40088208003E000882188401AD2
:100740003080288880F00200288070BD0A88520717
:1007500018D50A8822F004020A804178012901D1C3
:10076000406A804728888106264802D40088608035
:1007700003E000886188401A7080288880F020009B
:10078000288070BD0A88120718D50A8822F008024E
:100790000A808178032901D1806A804728888105F1
:1007A000194802D40088A08003E00088A188401A7C
:1007B000B080288880F40070288070BD0A88D20636
:1007C000FBD50A8822F010020A80C178012901D1E4
:1007D000C06A8047288881040C4802D40088E080E1
:1007E00003E00088E188401AF080288880F40050F7
:1007F000288070BD102C014080030020202C014077
:10080000342C0140382C01403C2C0140402C01404C
:100810000348018821F00101018002480069004776
:10082000102C01400003002070B54FF08045288A4D
:10083000C10740480AD0A989C90707D0298A21F0F1
:10084000010129824069BDE870400047298A394C7E
:100850008A07384904F18804A4F12006497916D59D
:100860002A8A22F002022A82012901D1006B8047E4
:10087000288C800702D4A88E208003E0A88E2188CF
:10088000401A3080288C80F00200288470BD2A8AAB
:10089000520716D52A8A22F004022A82012901D1A0
:1008A000406B8047288C800602D4288F608003E04C
:1008B000288F6188401A7080288C80F0200028845E
:1008C00070BD298A090717D5298A21F008012982D4
:1008D0008179012901D1806B8047288C800502D461
:1008E000A88FA08003E0A88FA188401AB080288C30
:1008F00080F40070288470BD298AC906FBD5298A36
:1009000021F010012982C179012901D1C06B8047F2
:10091000288C800403D4B5F84000E08004E0B5F8EA
:100920004000E188401AF080288C80F40050288430
:1009300070BD00000003002070B543490888C2075D
:1009400042480BD00A1F1288D20707D00A8822F02B
:1009500001020A808069BDE8704000470A883B4C6C
:100960003B4D04F190049207A4F1200618D50A88A3
:1009700022F002020A80017A012901D1006C80472D
:1009800028888107334802D40088208003E000884B
:100990002188401A3080288880F00200288070BDAD
:1009A0000A88520718D50A8822F004020A80417A80
:1009B000012901D1406C804728888106264802D44D
:1009C0000088608003E000886188401A7080288871
:1009D00080F02000288070BD0A88120718D50A8888
:1009E00022F008020A80817A012901D1806C8047B7
:1009F00028888105194802D40088A08003E0008877
:100A0000A188401AB080288880F40070288070BDCA
:100A10000A88D206FBD50A8822F010020A80C17A21
:100A2000012901D1C06C8047288881040C4802D478
:100A30000088E08003E00088E188401AF080288880
:100A400080F40050288070BD100400400003002096
:100A50002004004034040040380400403C040040BE
:100A60004004004070B543490888C20742480BD093
:100A70000A1F1288D20707D00A8822F001020A80D2
:100A8000C069BDE8704000470A883B4C3B4D04F10B
:100A900098049207A4F1200618D50A8822F00202D1
:100AA0000A80017B012901D1006D804728888107D8
:100AB000334802D40088208003E000882188401A4F
:100AC0003080288880F00200288070BD0A88520794
:100AD00018D50A8822F004020A80417B012901D13D
:100AE000406D804728888106264802D400886080AF
:100AF00003E000886188401A7080288880F0200018
:100B0000288070BD0A88120718D50A8822F00802CA
:100B10000A80817B012901D1806D80472888810569
:100B2000194802D40088A08003E00088A188401AF8
:100B3000B080288880F40070288070BD0A88D206B2
:100B4000FBD50A8822F010020A80C17B012901D15D
:100B5000C06D8047288881040C4802D40088E0805A
:100B600003E00088E188401AF080288880F4005073
:100B7000288070BD100800400003002020080040BD
:100B800034080040380800403C080040400800405D
:100B900002E008C8121F08C1002AFAD17047704746
:100BA000002001E001C1121F002AFBD170470000A4
:100BB000ADF5007DFFF7ECFC00240FE00F4951F884
:100BC0002400FFF7C1FB074600220D4BFFF74AFB4D
:100BD0000546FFF7CCFB4DF82400641C402CEDDBF0
:100BE000002407E021460548FFF746FD40A941F8EB
:100BF0002400641C402CF5DB00BFFEE7000200204F
:100C00000000E03F10B5044621462046FFF7F8FA01
:100C100010BD0000340C000800000020A4030000F8
:100C200030050008F80C0008A403002004040000AC
:100C3000A00B000810420000803F6DC47E3FBE1430
:100C40007B3F0BFA743F5E836C3F98C5613F31DB9D
:100C5000543F03E4453FF304353F9967223FDA39B7
:100C60000E3FEA5AF13E15EFC33E31A0943EC2C595
:100C7000473E36BDC83D0001110812BD1012BE1816
:100C800012BE2012BE2812BE3012BF3812BF401250
:100C9000BF4812BF5012BF5812BF6012BF6812BFC8
:100CA0007012BF7812BF8031082110211821202135
:100CB000282130213821402148215021582160210C
:100CC00068217021785180223D90219821A021A88F
:100CD00021B021B821C021C821D021D821E021E8AC
:100CE00021F021F801404005BE40037D803F040211
:080CF0007CBF0401A00100001B
:04000005080000ED02
:00000001FF
