:020000040800F2
:10000000A804002005010008290100082B010008B0
:100010002D0100082F010008310100080000000038
:100020000000000000000000000000003301000894
:10003000350100080000000037010008ED0200084B
:100040003B0100083B0100083B0100083B010008A0
:100050003B0100083B0100083B0100083B01000890
:100060003B0100083B0100083B0100083B01000880
:100070003B0100083B0100083B0100083B01000870
:100080003B0100083B0100083B0100083B01000860
:100090003B0100083B0100083B0100083B01000850
:1000A0003B010008050400083B010008F9020008B4
:1000B0001D0400082D050008590600083B01000832
:1000C0003B0100083B0100083B0100083B01000820
:1000D0003B0100083B0100083B0100083B01000810
:1000E0003B0100083B0100083B010008DFF810D08D
:1000F00000F02EF800480047A5070008AFF3008085
:10010000A80400200D488047DFF83400016841F45E
:10011000E0210160BFF34F8FDFF82800DFF82810DF
:1001200001600A4800477047FEE7FEE7FEE7FEE78A
:10013000FEE7FEE7FEE7FEE7FEE7FEE72701000831
:1001400024ED00E00CED00E00003FA05ED000008EE
:10015000064C074D06E0E06840F0010394E8070014
:1001600098471034AC42F6D3FFF7C4FFD00700081D
:10017000F007000870B5194C8320206000256560E9
:10018000A56017486060012000F02EF86168084300
:10019000606014490D60086840F002000860206843
:1001A00040F48030206020688003FCD5206840F057
:1001B0008070206020688001FCD5606820F003001A
:1001C0006060606840F002006060606840F4800039
:1001D0006060086840F01000086070BD00100240C8
:1001E00000841D0000200240012804D0B0F5807F6B
:1001F00003DD012102E000202CE00021802801DD48
:10020000012200E000220A44402801DD012100E033
:1002100000210A44102801DD012100E000210A44E8
:10022000082801DD012100E000210A44042801DD45
:10023000012100E000210A44022801DD012100E043
:1002400000211144012801DD012000E000200844C4
:10025000C01D0001702800D1002070472DE9F04F2B
:1002600006468C4600210A460B460C460D464FF0CA
:100270004008002021E00CFB00F14FEAE17901EB9E
:1002800099694FEAA919A1EB891736F91010DFF81F
:10029000549039F9179001FB09F18A1843EBE17387
:1002A00036F91010DFF8409039F9179001FB09F189
:1002B0000C1945EBE17500F101004045DBDBA2FBC9
:1002C000020103FB021102FB0311A4FB049A05FBCC
:1002D00004AA04FB05AA10EB090041EB0A01BDE8E2
:1002E000F08F000070080008F0080008014800685E
:1002F00000470000A000002070B53B4908883B4C37
:1003000082073B4DA4F12006A4F1800018D50A888D
:1003100022F002020A800178012901D1006A804797
:1003200028888107334802D40088208003E00088B1
:100330002188401A3080288880F00200288070BD13
:100340000A88520718D50A8822F004020A804178E8
:10035000012901D1406A804728888106264802D4B5
:100360000088608003E000886188401A70802888D7
:1003700080F02000288070BD0A88120718D50A88EE
:1003800022F008020A808178032901D1806A80471F
:1003900028888105194802D40088A08003E00088DD
:1003A000A188401AB080288880F40070288070BD31
:1003B0000A88D206FBD50A8822F010020A80C1788A
:1003C000012901D1C06A8047288881040C4802D4E1
:1003D0000088E08003E00088E188401AF0802888E7
:1003E00080F40050288070BD102C01408000002057
:1003F000202C0140342C0140382C01403C2C014081
:10040000402C01400348018821F00101018002488D
:1004100000690047102C01400000002070B54FF02B
:100420008045288AC10740480AD0A989C90707D052
:10043000298A21F0010129824069BDE87040004706
:10044000298A394C8A07384904F18804A4F1200626
:10045000497916D52A8A22F002022A82012901D17D
:10046000006B8047288C800702D4A88E208003E090
:10047000A88E2188401A3080288C80F002002884C1
:1004800070BD2A8A520716D52A8A22F004022A82CF
:10049000012901D1406B8047288C800602D4288F27
:1004A000608003E0288F6188401A7080288C80F07B
:1004B0002000288470BD298A090717D5298A21F0D0
:1004C000080129828179012901D1806B8047288C1C
:1004D000800502D4A88FA08003E0A88FA188401ACD
:1004E000B080288C80F40070288470BD298AC906E9
:1004F000FBD5298A21F010012982C179012901D176
:10050000C06B8047288C800403D4B5F84000E0809D
:1005100004E0B5F84000E188401AF080288C80F4AF
:100520000050288470BD00000000002070B54349D1
:100530000888C20742480BD00A1F1288D20707D08A
:100540000A8822F001020A808069BDE870400047F5
:100550000A883B4C3B4D04F190049207A4F120061D
:1005600018D50A8822F002020A80017A012901D1F5
:10057000006C804728888107334802D40088208097
:1005800003E000882188401A3080288880F002002B
:10059000288070BD0A88520718D50A8822F0040204
:1005A0000A80417A012901D1406C80472888810660
:1005B000264802D40088608003E000886188401AE1
:1005C0007080288880F02000288070BD0A8812077B
:1005D00018D50A8822F008020A80817A012901D1FF
:1005E000806C804728888105194802D40088A08043
:1005F00003E00088A188401AB080288880F4007049
:10060000288070BD0A88D206FBD50A8822F0100225
:100610000A80C17A012901D1C06C804728888104F1
:100620000C4802D40088E08003E00088E188401A8A
:10063000F080288880F40050288070BD10040040AD
:100640000000002020040040340400403804004032
:100650003C0400404004004070B543490888C2078C
:1006600042480BD00A1F1288D20707D00A8822F00E
:1006700001020A80C069BDE8704000470A883B4C0F
:100680003B4D04F198049207A4F1200618D50A887E
:1006900022F002020A80017B012901D1006D80470E
:1006A00028888107334802D40088208003E000882E
:1006B0002188401A3080288880F00200288070BD90
:1006C0000A88520718D50A8822F004020A80417B62
:1006D000012901D1406D804728888106264802D42F
:1006E0000088608003E000886188401A7080288854
:1006F00080F02000288070BD0A88120718D50A886B
:1007000022F008020A80817B012901D1806D804797
:1007100028888105194802D40088A08003E0008859
:10072000A188401AB080288880F40070288070BDAD
:100730000A88D206FBD50A8822F010020A80C17B03
:10074000012901D1C06D8047288881040C4802D45A
:100750000088E08003E00088E188401AF080288863
:1007600080F40050288070BD100800400000002078
:100770002008004034080040380800403C08004091
:100780004008004002E008C8121F08C1002AFAD140
:1007900070477047002001E001C1121F002AFBD101
:1007A00070470000ADF5007DFFF7E4FC002408E091
:1007B00021460648FFF752FD6A4602EBC40203C217
:1007C000641C402CF4DB00BFFEE70000F0070008CB
:1007D0007009000800000020A40000008407000841
:1007E000140A0008A4000020040400009407000874
:1007F000FF0FF60FD90FA80F640F0E0FA70E2F0EC5
:10080000A80D130D720CC50B100B530A9009C908E3
:10081000000837077006AD05F0043B048E03ED02B7
:100820005802D1015901F2009C00580027000A002B
:1008300000000A00270058009C00F2005901D10175
:100840005802ED028E033B04F004AD057006370735
:100850000008C9089009530A100BC50B720C130D40
:10086000A80D2F0EA70E0E0F640FA80FD90FF60FAD
:10087000FF7F627F8A7D7D7A4276E3706E6AF262E4
:10088000825A34511D47573CFC302825F9188C0CEE
:10089000000074F307E7D8DA04CFA9C3E3B8CCAEFD
:1008A0007EA50E9D92951D8FBE89838576829E8042
:1008B00000809E8076828385BE891D8F92950E9DD5
:1008C0007EA5CCAEE3B8A9C304CFD8DA07E774F3AA
:1008D00000008C0CF9182825FC30573C1D4734517A
:1008E000825AF2626E6AE37042767D7A8A7D627F16
:1008F00000008C0CF9182825FC30573C1D4734515A
:10090000825AF2626E6AE37042767D7A8A7D627FF5
:10091000FF7F627F8A7D7D7A4276E3706E6AF26243
:10092000825A34511D47573CFC302825F9188C0C4D
:10093000000074F307E7D8DA04CFA9C3E3B8CCAE5C
:100940007EA50E9D92951D8FBE89838576829E80A1
:1009500000809E8076828385BE891D8F92950E9D34
:100960007EA5CCAEE3B8A9C304CFD8DA07E774F309
:100970000000000000000000000000000000000077
:100980000000000000000000000000000000000067
:100990000000000000000000000000000000000057
:1009A0000000000000000000000000000000000047
:1009B0000000000000000000000000000000000037
:1009C0000000000000000000000000000000000027
:1009D0000000000000000000000000000000000017
:1009E0000000000000000000000000000000000007
:1009F00000000000000000000000000000000000F7
:100A000000000000000000000000000000000000E6
:040A100000000000E2
:04000005080000ED02
:00000001FF
